S0180000736D6172745F686F6D655F736C6176652E7372656363
S11300000C9472000C9484000C9484000C9484006E
S11300100C9484000C9484000C9484000C9484004C
S11300200C9484000C9484000C9484000C9484003C
S11300300C9484000C9484000C9484000C9484002C
S11300400C9484000C9484000C9484000C9484001C
S11300500C9484009200AB00C400DD00F500F500B0
S1130060F500F500F500F500F500F500F500F500E4
S1130070F500F500F500F500F500F500F500F500D4
S1130080F500F500F500F500F500F500F500F500C4
S1130090F500F5009200AB00C400DD0002011B0175
S11300A034014D0165016501650165016501650165
S11300B0650165016501650165016501650165010C
S11300C065016501650165016501650165016501FC
S11300D065016501650165016501650102011B0199
S11300E034014D0111241FBECFE5D8E0DEBFCDBFE2
S11300F020E0A0E6B0E001C01D92A336B207E1F70C
S11301000E9472010C9419020C94000090E0FC010E
S1130110E154F109E432F10508F067C0E65DFF4FF0
S11301200C941302413059F42AB381E090E002C0E8
S1130130880F991F6A95E2F7822B8ABB08952AB328
S113014081E090E002C0880F991F6A95E2F78095DC
S113015082238ABB0895413059F427B381E090E0AB
S113016002C0880F991F6A95E2F7822B87BB089516
S113017027B381E090E002C0880F991F6A95E2F7E7
S11301808095822387BB0895413059F424B381E0DC
S113019090E002C0880F991F6A95E2F7822B84BB16
S11301A0089524B381E090E002C0880F991F6A95F6
S11301B0E2F78095822384BB0895413059F421B33A
S11301C081E090E002C0880F991F6A95E2F7822BC4
S11301D081BB089521B381E090E002C0880F991F8C
S11301E06A95E2F78095822381BB089590E0FC0133
S11301F0E154F109E432F10508F067C0E25BFF4F16
S11302000C941302413059F42BB381E090E002C006
S1130210880F991F6A95E2F7822B8BBB08952BB345
S113022081E090E002C0880F991F6A95E2F78095FB
S113023082238BBB0895413059F428B381E090E0C8
S113024002C0880F991F6A95E2F7822B88BB089534
S113025028B381E090E002C0880F991F6A95E2F705
S11302608095822388BB0895413059F425B381E0F9
S113027090E002C0880F991F6A95E2F7822B85BB34
S1130280089525B381E090E002C0880F991F6A9514
S1130290E2F78095822385BB0895413059F422B357
S11302A081E090E002C0880F991F6A95E2F7822BE3
S11302B082BB089522B381E090E002C0880F991FA9
S11302C06A95E2F78095822382BB089541E00E94FB
S11302D08600089541E00E94F600089540E00E94DF
S11302E0F600089560E084E40E94660161E084E41D
S11302F00E94660162E084E40E94660163E084E493
S11303000E94660164E084E40E94660165E084E47E
S11303100E9466010E94070281E30E940E028093FC
S11303206200823391F128F4803349F08133D1F0B3
S1130330F3CF8333F1F1843309F44FC0EDCF81E37C
S11303400E940E0280936100803329F460E084E40B
S11303500E946E01E1CF8133F9F660E084E40E94EB
S11303606A01DACF81E30E940E0280936100803338
S113037029F461E084E40E946E01CECF813361F6FA
S113038061E084E40E946A01C7CF81E30E940E0207
S113039080936100803329F462E084E40E946E015A
S11303A0BBCF813309F0B8CF62E084E40E946A01D4
S11303B0B3CF81E30E940E0280936100803329F45D
S11303C063E084E40E946E01A7CF813309F0A4CFD7
S11303D063E084E40E946A019FCF81E30E940E02DD
S11303E080936100880F982F990F990F890F90912E
S11303F06000890F8093600081E30E940E02809365
S1130400610090916000890F8093600085CF6E9A9F
S113041041E066E082E40E94860008958FB9779BEC
S1130420FECF8FB10895EE0FFF1F0590F491E02DDC
S10904300994F894FFCFCB
S9030000FC
