S01A0000736D6172745F686F6D655F70726F6A6563742E7372656385
S11300000C9496000C94B3000C94B3000C94B300BD
S11300100C94B3000C9448070C94B3000C94B300F4
S11300200C94B3000C94B3000C94B3000C94B30080
S11300300C94B3000C94B3000C94B3000C94B30070
S11300400C94B3000C94B3000C94B3000C94B30060
S11300500C94B30042015B0174018D01A501A5015B
S1130060A501A501A501A501A501A501A501A5015C
S1130070A501A501A501A501A501A501A501A5014C
S1130080A501A501A501A501A501A501A501A5013C
S1130090A501A50142015B0174018D01B201CB01EF
S11300A0E401FD01150215021502150215021502DF
S11300B01502150215021502150215021502150284
S11300C01502150215021502150215021502150274
S11300D0150215021502150215021502B201CB0113
S11300E0E401FD0122023402460258026A026A0255
S11300F06A026A026A026A026A026A026A026A029C
S11301006A026A026A026A026A026A026A026A028B
S11301106A026A026A026A026A026A026A026A027B
S11301206A026A02220234024602580211241FBEE5
S1130130CFE5D8E0DEBFCDBF11E0A0E6B0E0E8E255
S1130140FFE002C005900D92A23EB107D9F721E06D
S1130150A2EEB1E001C01D92A73EB207E1F70E94F2
S11301608F040C9492070C940000815D0E94710727
S11301700E945D0487E790E00E944E0461E082E003
S11301800E9467048FE790E00E944E040E94470398
S11301908F3FE1F32FE73AE196E021503040904061
S11301A0E1F700C000000E9471070895CF930E94F8
S11301B05D048CE890E00E944E0463E082E00E94BB
S11301C0670483E40E9432048FED0E94320461E0EC
S11301D082E00E9467040E944703C82F8F3FD9F32F
S11301E02FE78AE196E0215080409040E1F700C07B
S11301F000008C2F0E9432048C2F0E9471072FE77D
S11302008AE196E0215080409040E1F700C0000070
S11302100E944703C82F8F3FD9F32FE78AE196E066
S1130220215080409040E1F700C000008C2F0E94D4
S113023032048C2F0E9471072FE78AE196E0215047
S113024080409040E1F700C000000E945D0489E90D
S113025090E00E944E042FEF84E39CE02150804004
S11302609040E1F700C00000CF91089590E0FC01B8
S1130270E154F109E432F10508F067C0E65DFF4F8F
S11302800C948C07413059F42AB381E090E002C009
S1130290880F991F6A95E2F7822B8ABB08952AB3C7
S11302A081E090E002C0880F991F6A95E2F780957B
S11302B082238ABB0895413059F427B381E090E04A
S11302C002C0880F991F6A95E2F7822B87BB0895B5
S11302D027B381E090E002C0880F991F6A95E2F786
S11302E08095822387BB0895413059F424B381E07B
S11302F090E002C0880F991F6A95E2F7822B84BBB5
S1130300089524B381E090E002C0880F991F6A9594
S1130310E2F78095822384BB0895413059F421B3D8
S113032081E090E002C0880F991F6A95E2F7822B62
S113033081BB089521B381E090E002C0880F991F2A
S11303406A95E2F78095822381BB089590E0FC01D1
S1130350E154F109E432F10508F067C0E25BFF4FB4
S11303600C948C07413059F42BB381E090E002C027
S1130370880F991F6A95E2F7822B8BBB08952BB3E4
S113038081E090E002C0880F991F6A95E2F780959A
S113039082238BBB0895413059F428B381E090E067
S11303A002C0880F991F6A95E2F7822B88BB0895D3
S11303B028B381E090E002C0880F991F6A95E2F7A4
S11303C08095822388BB0895413059F425B381E098
S11303D090E002C0880F991F6A95E2F7822B85BBD3
S11303E0089525B381E090E002C0880F991F6A95B3
S11303F0E2F78095822385BB0895413059F422B3F6
S113040081E090E002C0880F991F6A95E2F7822B81
S113041082BB089522B381E090E002C0880F991F47
S11304206A95E2F78095822382BB089590E0FC01EF
S1130430E154F109E432F10508F04CC0EE58FF4FE5
S11304400C948C0729B381E090E0062E02C0880F3B
S1130450991F0A94E2F730E08223932302C0959512
S113046087956A95E2F7089526B381E090E0062E19
S113047002C0880F991F0A94E2F730E08223932385
S113048002C0959587956A95E2F7089523B381E0B4
S113049090E0062E02C0880F991F0A94E2F730E01C
S11304A08223932302C0959587956A95E2F7089570
S11304B020B381E090E0062E02C0880F991F0A94B1
S11304C0E2F730E08223932302C0959587956A95DD
S11304D0E2F7089580E00895823419F118F4813424
S11304E039F008958334B1F1843409F44CC008958B
S11304F0413059F42BB381E090E002C0880F991F7A
S11305006A95E2F7822B8BBB08952BB381E090E0D0
S113051002C0880F991F6A95E2F7809582238BBBEE
S11305200895413059F428B381E090E002C0880F67
S1130530991F6A95E2F7822B88BB089528B381E05E
S113054090E002C0880F991F6A95E2F78095822394
S113055088BB0895413059F425B381E090E002C08E
S1130560880F991F6A95E2F7822B85BB089525B3FE
S113057081E090E002C0880F991F6A95E2F78095A8
S1130580822385BB0895413059F422B381E090E081
S113059002C0880F991F6A95E2F7822B82BB0895E7
S11305A022B381E090E002C0880F991F6A95E2F7B8
S11305B08095822382BB0895CF93DF93D82FC62FD3
S11305C0462F417064E00E94A601C1FB442740F914
S11305D065E08D2F0E94A601C2FB442740F966E026
S11305E08D2F0E94A601C3FB442740F967E08D2F9D
S11305F00E94A601DF91CF9108958EBB9FBB6DBB76
S1130600E29AE19AE199FECF08958EBB9FBBE09AEE
S11306108DB3089541E060E083E40E94360141E037
S113062061E083E40E94360141E062E083E40E94D9
S1130630360141E063E083E40E94360140E064E077
S113064083E40E94360140E065E083E40E943601C1
S113065040E066E083E40E94360140E067E083E422
S11306600E94360141E064E083E40E946C0241E0B0
S113067065E083E40E946C0241E066E083E40E944A
S11306806C0241E067E083E40E946C0208950F93DA
S11306901F93CF93DF93CDB7DEB760970FB6F8946F
S11306A0DEBF0FBECDBF80E1E7E6F0E0DE011196CC
S11306B001900D928A95E1F700E041E060E083E467
S11306C00E94A60141E061E083E40E94A60141E0AA
S11306D062E083E40E94A60141E063E083E40E94B7
S11306E0A60140E0602F83E40E94A60110E064E0CC
S11306F0610F83E40E94160281110DC0E1E0F0E075
S1130700EC0FFD1F84E0089FE00DF11D1124E10FA3
S1130710F11D808107C01F5F143049F70F5F04305B
S113072061F68FEF60960FB6F894DEBF0FBECDBFB3
S1130730DF91CF911F910F91089541E060E081E432
S11307400E94A6018FE891E00197F1F700C0000034
S113075040E060E081E40E94A6018FE891E0019707
S1130760F1F700C000000895CF93C82F682F629559
S11307706F7081E40E94DC0240E061E081E40E9449
S1130780A6010E949D036C2F81E40E94DC0240E0DC
S113079061E081E40E94A6010E949D0387EC90E041
S11307A00197F1F700C00000CF9108958FE39CE911
S11307B00197F1F700C0000041E064E081E40E9489
S11307C0360141E065E081E40E94360141E066E0E3
S11307D081E40E94360141E067E081E40E94360131
S11307E041E060E081E40E94360141E061E081E49F
S11307F00E94360141E062E081E40E94360140E05B
S113080062E081E40E94A60182E00E94B4038FECBE
S113081097E00197F1F700C0000088E20E94B4035A
S113082087EC90E00197F1F700C000008CE00E9493
S1130830B40387EC90E00197F1F700C0000081E079
S11308400E94B4038FEC97E00197F1F700C0000019
S113085086E00E94B40387EC90E00197F1F700C0B2
S113086000000895CF93C82F682F62956F7081E4BC
S11308700E94DC0241E061E081E40E94A6010E9442
S11308809D036C2F81E40E94DC0241E061E081E47D
S11308900E94A6010E949D03CF910895CF93DF93F8
S11308A0EC018881882331F021960E9432048991D9
S11308B08111FBCFDF91CF91089581E00E94B403B1
S11308C08FEC97E00197F1F700C0000008959FEFC7
S11308D0980F923070F49FEF960F903160F481304E
S11308E019F48FE7860F0AC0823039F48FEB860F34
S11308F005C080E803C080E801C080E00E94B40322
S113090087EC90E00197F1F700C00000089541E002
S11309100E943601089541E00E94A6010895DF92E5
S1130920EF92FF920F931F93CF93DF930E94590787
S11309300E94D6030E940A0360E084E40E948704B4
S113094061E084E40E94870486EA90E00E944E04F9
S113095065E082E00E94670487EB90E00E944E0409
S11309602FEF83ED90E3215080409040E1F700C0E9
S113097000000E945D0480916500909166000E94D1
S113098005038F3F09F06AC080EC90E00E944E049A
S113099061E082E00E94670400E010E00E944703E7
S11309A0C82F8F3FD9F30E9432042FEF84E39CE0D9
S11309B0215080409040E1F700C0000061E0600FEA
S11309C082E00E9467048AE20E94320480916300FC
S11309D0909164006C2F800F911F0E94FD020F5FA5
S11309E01F4F04301105D1F60E945D0480ED90E0A4
S11309F00E944E0461E082E00E94670400E010E07F
S1130A000E944703C82F8F3FD9F30E9432042FEF6F
S1130A1084E39CE0215080409040E1F700C0000056
S1130A2061E0600F82E00E9467048AE20E9432045F
S1130A3080916100909162006C2F800F911F0E9441
S1130A40FD020F5F1F4F04301105D1F660E0809165
S1130A506500909166000E94FD0239C1DD24D394A3
S1130A60ED2CFD2C0E945D0480EE90E00E944E046B
S1130A706D2D82E00E9467048DEE90E00E944E048A
S1130A802FEF84E39CE0215080409040E1F700C0C8
S1130A9000000E9447038093E4018F3FD1F32FE7C6
S1130AA08AE196E0215080409040E1F700C00000C8
S1130AB08091E401803309F06CC01092E3010E943C
S1130AC05D048DEF90E00E944E046E2D82E00E9442
S1130AD067042FE788E391E0215080409040E1F7DC
S1130AE000C0000000E010E0D0E00E944703C82FDF
S1130AF08F3FD9F30E9432042FEF84E39CE021500E
S1130B0080409040E1F700C00000DF5F6D2F82E07D
S1130B100E9467048AE20E943204809163009091EB
S1130B206400800F911F0E940503C813F092E30133
S1130B300F5F1F4FD430C9F68091E301811104C0C7
S1130B4082E08093E50194C10E945D048EE091E00F
S1130B500E944E046E2D82E00E9467048DE191E0B4
S1130B600E944E0480916000815D0E9432042FEF48
S1130B7089E698E1215080409040E1F700C00000F0
S1130B808091600081508093600018160CF495CF1A
S1130B907CC0813309F06CC01092E3010E945D04B3
S1130BA08BE291E00E944E046E2D82E00E94670465
S1130BB02FE788E391E0215080409040E1F700C0A6
S1130BC0000000E010E0D0E00E944703C82F8F3FF0
S1130BD0D9F30E9432042FEF84E39CE0215080403B
S1130BE09040E1F700C00000DF5F6D2F82E00E94BB
S1130BF067048AE20E94320480916100909162004D
S1130C00800F911F0E940503C813F092E3010F5F48
S1130C101F4FD430C9F68091E301811104C082E0F2
S1130C208093E50125C10E945D048EE091E00E945D
S1130C304E046E2D82E00E9467048DE191E00E94D3
S1130C404E0480916000815D0E9432042FEF89E69A
S1130C5098E1215080409040E1F700C0000080916D
S1130C60600081508093600018160CF495CF0DC07D
S1130C708CE391E00E944E042FEF84E39CE021502A
S1130C8080409040E1F700C0000090916000911115
S1130C9018C00E945D0489E491E00E944E0461E062
S1130CA082E00E94670487E591E00E944E042FEFE2
S1130CB084E39CE0215080409040E1F700C00000B4
S1130CC006C08091E501823009F0CCCECEC080917F
S1130CD0600018160CF0C3C08091E501823009F061
S1130CE0BEC081E08093E5010E947E07B8C0809178
S1130CF0E401803321F0813309F445C065C061E02B
S1130D0084E40E948B040E945D0487E691E00E94C3
S1130D104E0461E082E00E94670488E791E00E944B
S1130D204E040E9447038093E6018F3FD1F32FE7DF
S1130D308AE196E0215080409040E1F700C0000035
S1130D408091E601823309F03FC00E945D0489E886
S1130D5091E00E944E0461E082E00E94670489E908
S1130D6091E00E944E040E9447038093E6018F3F66
S1130D70D1F32FE78AE196E0215080409040E1F7DB
S1130D8000C0000021C060E084E40E948B040E9443
S1130D905D0489EA91E00E944E0461E082E00E94D1
S1130DA067048AEB91E00E944E040E9447038093FB
S1130DB0E6018F3FD1F32FE78AE196E0215080408E
S1130DC09040E1F700C000008091E6018233A1F079
S1130DD028F4803349F0813359F024C08433E1F09E
S1130DE078F08533E9F01EC081E00E94B5001AC096
S1130DF082E00E94B50016C083E00E94B50012C0D4
S1130E008091E401813321F484E00E94B5000AC09A
S1130E1083E00E94B50006C084E00E94B50002C0D1
S1130E200E94D6008091E2018530C8F00E945D04E2
S1130E308BEC91E00E944E0461E082E00E94670422
S1130E4088ED91E00E944E042FEF89E698E121504D
S1130E5080409040E1F700C000001092E5018091CD
S1130E60E501813009F443CF09C01916C4F739CF1D
S1130E7090916000992309F40CCFF7CF80E090E0C3
S1130E80DF91CF911F910F91FF90EF90DF90089524
S1130E901F920F920FB60F9211248F938091E2014B
S1130EA08F5F8093E2018F910F900FBE0F901F9080
S1130EB0189541E064E082E40E94360141E065E077
S1130EC082E40E94360141E067E082E40E94360138
S1130ED06C9A689A6E9A41E064E082E40E94A601EA
S1130EE00895CF93C82F40E064E082E40E94A601F5
S1130EF0CFB9779BFECF8FB1CF91089582B588602B
S1130F0082BD85B5816085BD85B5846085BD7894D5
S1130F1089B7806489BF0895EE0FFF1F0590F4918F
S10B0F20E02D0994F894FFCFC1
S1130F28033500310030003738392F3435362A314B
S1130F3832332D43303D2B4C49474854533A003003
S1130F483A4F4646202020313A4F4E00534554200C
S1130F5854454D5020544F3A0054656D70206973C0
S1130F682073656E740077656C636F6D6520746FAC
S1130F7820736D61727400686F6D65206170700014
S1130F885345542041444D494E20504153533A004F
S1130F9853455420475545535420504153533A0020
S1130FA853454C454354204D4F44453A00303A414B
S1130FB8444D494E20313A475545535400454E5403
S1130FC845522041444D494E2050415353007772B5
S1130FD86F6E672070617373776F7264004E554D3E
S1130FE8206F662074726965733A00454E54455201
S1130FF820475545535420504153530057524F4EA0
S1131008472043484F495345004E4F204D4F5245C2
S113101820545249455300534D41525420484F4D92
S11310284520455849540043484F53453A20202009
S1131038303A524F4F4D3100313A524F4F4D3220D2
S11310482020323A4D4F524500333A524F4F4D33D8
S113105820343A524F4F4D3400353A414320202032
S1131068363A476F4261636B00303A524F4F4D3105
S11310782020313A524F4F4D3200323A524F4F4DA1
S1131088332020333A524F4F4D34005553455220A4
S113109854494D454F5554004558495420415050E2
S10510A8000042
S9030000FC
